{
  "_format": "hh-sol-artifact-1",
  "contractName": "ERC721_Factory",
  "sourceName": "contracts/ERC721_Factory.sol",
  "abi": [
    {
      "inputs": [],
      "stateMutability": "nonpayable",
      "type": "constructor"
    },
    {
      "anonymous": false,
      "inputs": [
        {
          "indexed": true,
          "internalType": "address",
          "name": "owner",
          "type": "address"
        },
        {
          "indexed": true,
          "internalType": "address",
          "name": "approved",
          "type": "address"
        },
        {
          "indexed": true,
          "internalType": "uint256",
          "name": "tokenId",
          "type": "uint256"
        }
      ],
      "name": "Approval",
      "type": "event"
    },
    {
      "anonymous": false,
      "inputs": [
        {
          "indexed": true,
          "internalType": "address",
          "name": "owner",
          "type": "address"
        },
        {
          "indexed": true,
          "internalType": "address",
          "name": "operator",
          "type": "address"
        },
        {
          "indexed": false,
          "internalType": "bool",
          "name": "approved",
          "type": "bool"
        }
      ],
      "name": "ApprovalForAll",
      "type": "event"
    },
    {
      "anonymous": false,
      "inputs": [
        {
          "indexed": true,
          "internalType": "address",
          "name": "previousOwner",
          "type": "address"
        },
        {
          "indexed": true,
          "internalType": "address",
          "name": "newOwner",
          "type": "address"
        }
      ],
      "name": "OwnershipTransferred",
      "type": "event"
    },
    {
      "anonymous": false,
      "inputs": [
        {
          "indexed": true,
          "internalType": "address",
          "name": "from",
          "type": "address"
        },
        {
          "indexed": true,
          "internalType": "address",
          "name": "to",
          "type": "address"
        },
        {
          "indexed": true,
          "internalType": "uint256",
          "name": "tokenId",
          "type": "uint256"
        }
      ],
      "name": "Transfer",
      "type": "event"
    },
    {
      "inputs": [
        {
          "internalType": "address",
          "name": "to",
          "type": "address"
        },
        {
          "internalType": "uint256",
          "name": "tokenId",
          "type": "uint256"
        }
      ],
      "name": "approve",
      "outputs": [],
      "stateMutability": "nonpayable",
      "type": "function"
    },
    {
      "inputs": [
        {
          "internalType": "address",
          "name": "owner",
          "type": "address"
        }
      ],
      "name": "balanceOf",
      "outputs": [
        {
          "internalType": "uint256",
          "name": "",
          "type": "uint256"
        }
      ],
      "stateMutability": "view",
      "type": "function"
    },
    {
      "inputs": [],
      "name": "baseURI",
      "outputs": [
        {
          "internalType": "string",
          "name": "",
          "type": "string"
        }
      ],
      "stateMutability": "view",
      "type": "function"
    },
    {
      "inputs": [
        {
          "internalType": "uint256",
          "name": "tokenId",
          "type": "uint256"
        }
      ],
      "name": "getApproved",
      "outputs": [
        {
          "internalType": "address",
          "name": "",
          "type": "address"
        }
      ],
      "stateMutability": "view",
      "type": "function"
    },
    {
      "inputs": [
        {
          "internalType": "address",
          "name": "owner",
          "type": "address"
        },
        {
          "internalType": "address",
          "name": "operator",
          "type": "address"
        }
      ],
      "name": "isApprovedForAll",
      "outputs": [
        {
          "internalType": "bool",
          "name": "",
          "type": "bool"
        }
      ],
      "stateMutability": "view",
      "type": "function"
    },
    {
      "inputs": [
        {
          "internalType": "address",
          "name": "recipient",
          "type": "address"
        },
        {
          "internalType": "string",
          "name": "tokenURI",
          "type": "string"
        }
      ],
      "name": "mint_ERC721",
      "outputs": [
        {
          "internalType": "uint256",
          "name": "",
          "type": "uint256"
        }
      ],
      "stateMutability": "payable",
      "type": "function"
    },
    {
      "inputs": [],
      "name": "name",
      "outputs": [
        {
          "internalType": "string",
          "name": "",
          "type": "string"
        }
      ],
      "stateMutability": "view",
      "type": "function"
    },
    {
      "inputs": [
        {
          "internalType": "uint256",
          "name": "",
          "type": "uint256"
        }
      ],
      "name": "nftToOwner",
      "outputs": [
        {
          "internalType": "address",
          "name": "",
          "type": "address"
        }
      ],
      "stateMutability": "view",
      "type": "function"
    },
    {
      "inputs": [],
      "name": "owner",
      "outputs": [
        {
          "internalType": "address",
          "name": "",
          "type": "address"
        }
      ],
      "stateMutability": "view",
      "type": "function"
    },
    {
      "inputs": [
        {
          "internalType": "uint256",
          "name": "tokenId",
          "type": "uint256"
        }
      ],
      "name": "ownerOf",
      "outputs": [
        {
          "internalType": "address",
          "name": "",
          "type": "address"
        }
      ],
      "stateMutability": "view",
      "type": "function"
    },
    {
      "inputs": [],
      "name": "renounceOwnership",
      "outputs": [],
      "stateMutability": "nonpayable",
      "type": "function"
    },
    {
      "inputs": [
        {
          "internalType": "address",
          "name": "from",
          "type": "address"
        },
        {
          "internalType": "address",
          "name": "to",
          "type": "address"
        },
        {
          "internalType": "uint256",
          "name": "tokenId",
          "type": "uint256"
        }
      ],
      "name": "safeTransferFrom",
      "outputs": [],
      "stateMutability": "nonpayable",
      "type": "function"
    },
    {
      "inputs": [
        {
          "internalType": "address",
          "name": "from",
          "type": "address"
        },
        {
          "internalType": "address",
          "name": "to",
          "type": "address"
        },
        {
          "internalType": "uint256",
          "name": "tokenId",
          "type": "uint256"
        },
        {
          "internalType": "bytes",
          "name": "_data",
          "type": "bytes"
        }
      ],
      "name": "safeTransferFrom",
      "outputs": [],
      "stateMutability": "nonpayable",
      "type": "function"
    },
    {
      "inputs": [
        {
          "internalType": "address",
          "name": "operator",
          "type": "address"
        },
        {
          "internalType": "bool",
          "name": "approved",
          "type": "bool"
        }
      ],
      "name": "setApprovalForAll",
      "outputs": [],
      "stateMutability": "nonpayable",
      "type": "function"
    },
    {
      "inputs": [
        {
          "internalType": "bytes4",
          "name": "interfaceId",
          "type": "bytes4"
        }
      ],
      "name": "supportsInterface",
      "outputs": [
        {
          "internalType": "bool",
          "name": "",
          "type": "bool"
        }
      ],
      "stateMutability": "view",
      "type": "function"
    },
    {
      "inputs": [],
      "name": "symbol",
      "outputs": [
        {
          "internalType": "string",
          "name": "",
          "type": "string"
        }
      ],
      "stateMutability": "view",
      "type": "function"
    },
    {
      "inputs": [
        {
          "internalType": "uint256",
          "name": "index",
          "type": "uint256"
        }
      ],
      "name": "tokenByIndex",
      "outputs": [
        {
          "internalType": "uint256",
          "name": "",
          "type": "uint256"
        }
      ],
      "stateMutability": "view",
      "type": "function"
    },
    {
      "inputs": [
        {
          "internalType": "address",
          "name": "owner",
          "type": "address"
        },
        {
          "internalType": "uint256",
          "name": "index",
          "type": "uint256"
        }
      ],
      "name": "tokenOfOwnerByIndex",
      "outputs": [
        {
          "internalType": "uint256",
          "name": "",
          "type": "uint256"
        }
      ],
      "stateMutability": "view",
      "type": "function"
    },
    {
      "inputs": [
        {
          "internalType": "uint256",
          "name": "tokenId",
          "type": "uint256"
        }
      ],
      "name": "tokenURI",
      "outputs": [
        {
          "internalType": "string",
          "name": "",
          "type": "string"
        }
      ],
      "stateMutability": "view",
      "type": "function"
    },
    {
      "inputs": [],
      "name": "totalSupply",
      "outputs": [
        {
          "internalType": "uint256",
          "name": "",
          "type": "uint256"
        }
      ],
      "stateMutability": "view",
      "type": "function"
    },
    {
      "inputs": [
        {
          "internalType": "address",
          "name": "from",
          "type": "address"
        },
        {
          "internalType": "address",
          "name": "to",
          "type": "address"
        },
        {
          "internalType": "uint256",
          "name": "tokenId",
          "type": "uint256"
        }
      ],
      "name": "transferFrom",
      "outputs": [],
      "stateMutability": "nonpayable",
      "type": "function"
    },
    {
      "inputs": [
        {
          "internalType": "address",
          "name": "newOwner",
          "type": "address"
        }
      ],
      "name": "transferOwnership",
      "outputs": [],
      "stateMutability": "nonpayable",
      "type": "function"
    }
  ],
  "bytecode": "0x60806040523480156200001157600080fd5b506040518060400160405280600e81526020017f4552433732315f466163746f72790000000000000000000000000000000000008152506040518060400160405280600781526020017f4552433732314600000000000000000000000000000000000000000000000000815250620000966301ffc9a760e01b620001c960201b60201c565b8160069080519060200190620000ae929190620002da565b508060079080519060200190620000c7929190620002da565b50620000e06380ac58cd60e01b620001c960201b60201c565b620000f8635b5e139f60e01b620001c960201b60201c565b6200011063780e9d6360e01b620001c960201b60201c565b5050600062000124620002d260201b60201c565b905080600a60006101000a81548173ffffffffffffffffffffffffffffffffffffffff021916908373ffffffffffffffffffffffffffffffffffffffff1602179055508073ffffffffffffffffffffffffffffffffffffffff16600073ffffffffffffffffffffffffffffffffffffffff167f8be0079c531659141344cd1fd0a4f28419497f9722a3daafe3b4186f6b6457e060405160405180910390a35062000380565b63ffffffff60e01b817bffffffffffffffffffffffffffffffffffffffffffffffffffffffff1916141562000266576040517f08c379a000000000000000000000000000000000000000000000000000000000815260040180806020018281038252601c8152602001807f4552433136353a20696e76616c696420696e746572666163652069640000000081525060200191505060405180910390fd5b6001600080837bffffffffffffffffffffffffffffffffffffffffffffffffffffffff19167bffffffffffffffffffffffffffffffffffffffffffffffffffffffff1916815260200190815260200160002060006101000a81548160ff02191690831515021790555050565b600033905090565b828054600181600116156101000203166002900490600052602060002090601f016020900481019282601f106200031d57805160ff19168380011785556200034e565b828001600101855582156200034e579182015b828111156200034d57825182559160200191906001019062000330565b5b5090506200035d919062000361565b5090565b5b808211156200037c57600081600090555060010162000362565b5090565b61323680620003906000396000f3fe6080604052600436106101355760003560e01c806370a08231116100ab578063a22cb4651161006f578063a22cb4651461080a578063b88d4fde14610867578063c1e808d414610979578063c87b56dd146109de578063e985e9c514610a92578063f2fde38b14610b1957610135565b806370a08231146105ce578063715018a6146106335780638da5cb5b1461064a57806395d89b411461068b5780639b9a99131461071b57610135565b806323b872dd116100fd57806323b872dd146103255780632f745c59146103a057806342842e0e1461040f5780634f6ccce71461048a5780636352211e146104d95780636c0360eb1461053e57610135565b806301ffc9a71461013a57806306fdde03146101aa578063081812fc1461023a578063095ea7b31461029f57806318160ddd146102fa575b600080fd5b34801561014657600080fd5b506101926004803603602081101561015d57600080fd5b8101908080357bffffffffffffffffffffffffffffffffffffffffffffffffffffffff19169060200190929190505050610b6a565b60405180821515815260200191505060405180910390f35b3480156101b657600080fd5b506101bf610bd1565b6040518080602001828103825283818151815260200191508051906020019080838360005b838110156101ff5780820151818401526020810190506101e4565b50505050905090810190601f16801561022c5780820380516001836020036101000a031916815260200191505b509250505060405180910390f35b34801561024657600080fd5b506102736004803603602081101561025d57600080fd5b8101908080359060200190929190505050610c73565b604051808273ffffffffffffffffffffffffffffffffffffffff16815260200191505060405180910390f35b3480156102ab57600080fd5b506102f8600480360360408110156102c257600080fd5b81019080803573ffffffffffffffffffffffffffffffffffffffff16906020019092919080359060200190929190505050610d0e565b005b34801561030657600080fd5b5061030f610e52565b6040518082815260200191505060405180910390f35b34801561033157600080fd5b5061039e6004803603606081101561034857600080fd5b81019080803573ffffffffffffffffffffffffffffffffffffffff169060200190929190803573ffffffffffffffffffffffffffffffffffffffff16906020019092919080359060200190929190505050610e63565b005b3480156103ac57600080fd5b506103f9600480360360408110156103c357600080fd5b81019080803573ffffffffffffffffffffffffffffffffffffffff16906020019092919080359060200190929190505050610ed9565b6040518082815260200191505060405180910390f35b34801561041b57600080fd5b506104886004803603606081101561043257600080fd5b81019080803573ffffffffffffffffffffffffffffffffffffffff169060200190929190803573ffffffffffffffffffffffffffffffffffffffff16906020019092919080359060200190929190505050610f34565b005b34801561049657600080fd5b506104c3600480360360208110156104ad57600080fd5b8101908080359060200190929190505050610f54565b6040518082815260200191505060405180910390f35b3480156104e557600080fd5b50610512600480360360208110156104fc57600080fd5b8101908080359060200190929190505050610f77565b604051808273ffffffffffffffffffffffffffffffffffffffff16815260200191505060405180910390f35b34801561054a57600080fd5b50610553610fae565b6040518080602001828103825283818151815260200191508051906020019080838360005b83811015610593578082015181840152602081019050610578565b50505050905090810190601f1680156105c05780820380516001836020036101000a031916815260200191505b509250505060405180910390f35b3480156105da57600080fd5b5061061d600480360360208110156105f157600080fd5b81019080803573ffffffffffffffffffffffffffffffffffffffff169060200190929190505050611050565b6040518082815260200191505060405180910390f35b34801561063f57600080fd5b50610648611125565b005b34801561065657600080fd5b5061065f611295565b604051808273ffffffffffffffffffffffffffffffffffffffff16815260200191505060405180910390f35b34801561069757600080fd5b506106a06112bf565b6040518080602001828103825283818151815260200191508051906020019080838360005b838110156106e05780820151818401526020810190506106c5565b50505050905090810190601f16801561070d5780820380516001836020036101000a031916815260200191505b509250505060405180910390f35b6107f46004803603604081101561073157600080fd5b81019080803573ffffffffffffffffffffffffffffffffffffffff1690602001909291908035906020019064010000000081111561076e57600080fd5b82018360208201111561078057600080fd5b803590602001918460018302840111640100000000831117156107a257600080fd5b91908080601f016020809104026020016040519081016040528093929190818152602001838380828437600081840152601f19601f820116905080830192505050505050509192919290505050611361565b6040518082815260200191505060405180910390f35b34801561081657600080fd5b506108656004803603604081101561082d57600080fd5b81019080803573ffffffffffffffffffffffffffffffffffffffff1690602001909291908035151590602001909291905050506113fa565b005b34801561087357600080fd5b506109776004803603608081101561088a57600080fd5b81019080803573ffffffffffffffffffffffffffffffffffffffff169060200190929190803573ffffffffffffffffffffffffffffffffffffffff16906020019092919080359060200190929190803590602001906401000000008111156108f157600080fd5b82018360208201111561090357600080fd5b8035906020019184600183028401116401000000008311171561092557600080fd5b91908080601f016020809104026020016040519081016040528093929190818152602001838380828437600081840152601f19601f8201169050808301925050505050505091929192905050506115b0565b005b34801561098557600080fd5b506109b26004803603602081101561099c57600080fd5b8101908080359060200190929190505050611628565b604051808273ffffffffffffffffffffffffffffffffffffffff16815260200191505060405180910390f35b3480156109ea57600080fd5b50610a1760048036036020811015610a0157600080fd5b810190808035906020019092919050505061165b565b6040518080602001828103825283818151815260200191508051906020019080838360005b83811015610a57578082015181840152602081019050610a3c565b50505050905090810190601f168015610a845780820380516001836020036101000a031916815260200191505b509250505060405180910390f35b348015610a9e57600080fd5b50610b0160048036036040811015610ab557600080fd5b81019080803573ffffffffffffffffffffffffffffffffffffffff169060200190929190803573ffffffffffffffffffffffffffffffffffffffff16906020019092919050505061192c565b60405180821515815260200191505060405180910390f35b348015610b2557600080fd5b50610b6860048036036020811015610b3c57600080fd5b81019080803573ffffffffffffffffffffffffffffffffffffffff1690602001909291905050506119c0565b005b6000806000837bffffffffffffffffffffffffffffffffffffffffffffffffffffffff19167bffffffffffffffffffffffffffffffffffffffffffffffffffffffff1916815260200190815260200160002060009054906101000a900460ff169050919050565b606060068054600181600116156101000203166002900480601f016020809104026020016040519081016040528092919081815260200182805460018160011615610100020316600290048015610c695780601f10610c3e57610100808354040283529160200191610c69565b820191906000526020600020905b815481529060010190602001808311610c4c57829003601f168201915b5050505050905090565b6000610c7e82611bb5565b610cd3576040517f08c379a000000000000000000000000000000000000000000000000000000000815260040180806020018281038252602c8152602001806130de602c913960400191505060405180910390fd5b6004600083815260200190815260200160002060009054906101000a900473ffffffffffffffffffffffffffffffffffffffff169050919050565b6000610d1982610f77565b90508073ffffffffffffffffffffffffffffffffffffffff168373ffffffffffffffffffffffffffffffffffffffff161415610da0576040517f08c379a000000000000000000000000000000000000000000000000000000000815260040180806020018281038252602181526020018061318e6021913960400191505060405180910390fd5b8073ffffffffffffffffffffffffffffffffffffffff16610dbf611bd2565b73ffffffffffffffffffffffffffffffffffffffff161480610dee5750610ded81610de8611bd2565b61192c565b5b610e43576040517f08c379a00000000000000000000000000000000000000000000000000000000081526004018080602001828103825260388152602001806130316038913960400191505060405180910390fd5b610e4d8383611bda565b505050565b6000610e5e6002611c93565b905090565b610e74610e6e611bd2565b82611ca8565b610ec9576040517f08c379a00000000000000000000000000000000000000000000000000000000081526004018080602001828103825260318152602001806131af6031913960400191505060405180910390fd5b610ed4838383611d9c565b505050565b6000610f2c82600160008673ffffffffffffffffffffffffffffffffffffffff1673ffffffffffffffffffffffffffffffffffffffff168152602001908152602001600020611fdf90919063ffffffff16565b905092915050565b610f4f838383604051806020016040528060008152506115b0565b505050565b600080610f6b836002611ff990919063ffffffff16565b50905080915050919050565b6000610fa7826040518060600160405280602981526020016130936029913960026120259092919063ffffffff16565b9050919050565b606060098054600181600116156101000203166002900480601f0160208091040260200160405190810160405280929190818152602001828054600181600116156101000203166002900480156110465780601f1061101b57610100808354040283529160200191611046565b820191906000526020600020905b81548152906001019060200180831161102957829003601f168201915b5050505050905090565b60008073ffffffffffffffffffffffffffffffffffffffff168273ffffffffffffffffffffffffffffffffffffffff1614156110d7576040517f08c379a000000000000000000000000000000000000000000000000000000000815260040180806020018281038252602a815260200180613069602a913960400191505060405180910390fd5b61111e600160008473ffffffffffffffffffffffffffffffffffffffff1673ffffffffffffffffffffffffffffffffffffffff168152602001908152602001600020612044565b9050919050565b61112d611bd2565b73ffffffffffffffffffffffffffffffffffffffff1661114b611295565b73ffffffffffffffffffffffffffffffffffffffff16146111d4576040517f08c379a00000000000000000000000000000000000000000000000000000000081526004018080602001828103825260208152602001807f4f776e61626c653a2063616c6c6572206973206e6f7420746865206f776e657281525060200191505060405180910390fd5b600073ffffffffffffffffffffffffffffffffffffffff16600a60009054906101000a900473ffffffffffffffffffffffffffffffffffffffff1673ffffffffffffffffffffffffffffffffffffffff167f8be0079c531659141344cd1fd0a4f28419497f9722a3daafe3b4186f6b6457e060405160405180910390a36000600a60006101000a81548173ffffffffffffffffffffffffffffffffffffffff021916908373ffffffffffffffffffffffffffffffffffffffff160217905550565b6000600a60009054906101000a900473ffffffffffffffffffffffffffffffffffffffff16905090565b606060078054600181600116156101000203166002900480601f0160208091040260200160405190810160405280929190818152602001828054600181600116156101000203166002900480156113575780601f1061132c57610100808354040283529160200191611357565b820191906000526020600020905b81548152906001019060200180831161133a57829003601f168201915b5050505050905090565b600067125195019f8400003410156113c4576040517f08c379a00000000000000000000000000000000000000000000000000000000081526004018080602001828103825260218152602001806131e06021913960400191505060405180910390fd5b6113ce600b612059565b60006113da600b61206f565b90506113e6848261207d565b6113f08184612271565b8091505092915050565b611402611bd2565b73ffffffffffffffffffffffffffffffffffffffff168273ffffffffffffffffffffffffffffffffffffffff1614156114a3576040517f08c379a00000000000000000000000000000000000000000000000000000000081526004018080602001828103825260198152602001807f4552433732313a20617070726f766520746f2063616c6c65720000000000000081525060200191505060405180910390fd5b80600560006114b0611bd2565b73ffffffffffffffffffffffffffffffffffffffff1673ffffffffffffffffffffffffffffffffffffffff16815260200190815260200160002060008473ffffffffffffffffffffffffffffffffffffffff1673ffffffffffffffffffffffffffffffffffffffff16815260200190815260200160002060006101000a81548160ff0219169083151502179055508173ffffffffffffffffffffffffffffffffffffffff1661155d611bd2565b73ffffffffffffffffffffffffffffffffffffffff167f17307eab39ab6107e8899845ad3d59bd9653f200f220920489ca2b5937696c318360405180821515815260200191505060405180910390a35050565b6115c16115bb611bd2565b83611ca8565b611616576040517f08c379a00000000000000000000000000000000000000000000000000000000081526004018080602001828103825260318152602001806131af6031913960400191505060405180910390fd5b611622848484846122fb565b50505050565b600c6020528060005260406000206000915054906101000a900473ffffffffffffffffffffffffffffffffffffffff1681565b606061166682611bb5565b6116bb576040517f08c379a000000000000000000000000000000000000000000000000000000000815260040180806020018281038252602f81526020018061315f602f913960400191505060405180910390fd5b6060600860008481526020019081526020016000208054600181600116156101000203166002900480601f0160208091040260200160405190810160405280929190818152602001828054600181600116156101000203166002900480156117645780601f1061173957610100808354040283529160200191611764565b820191906000526020600020905b81548152906001019060200180831161174757829003601f168201915b505050505090506060611775610fae565b905060008151141561178b578192505050611927565b60008251111561185c5780826040516020018083805190602001908083835b602083106117cd57805182526020820191506020810190506020830392506117aa565b6001836020036101000a03801982511681845116808217855250505050505090500182805190602001908083835b6020831061181e57805182526020820191506020810190506020830392506117fb565b6001836020036101000a0380198251168184511680821785525050505050509050019250505060405160208183030381529060405292505050611927565b806118668561236d565b6040516020018083805190602001908083835b6020831061189c5780518252602082019150602081019050602083039250611879565b6001836020036101000a03801982511681845116808217855250505050505090500182805190602001908083835b602083106118ed57805182526020820191506020810190506020830392506118ca565b6001836020036101000a03801982511681845116808217855250505050505090500192505050604051602081830303815290604052925050505b919050565b6000600560008473ffffffffffffffffffffffffffffffffffffffff1673ffffffffffffffffffffffffffffffffffffffff16815260200190815260200160002060008373ffffffffffffffffffffffffffffffffffffffff1673ffffffffffffffffffffffffffffffffffffffff16815260200190815260200160002060009054906101000a900460ff16905092915050565b6119c8611bd2565b73ffffffffffffffffffffffffffffffffffffffff166119e6611295565b73ffffffffffffffffffffffffffffffffffffffff1614611a6f576040517f08c379a00000000000000000000000000000000000000000000000000000000081526004018080602001828103825260208152602001807f4f776e61626c653a2063616c6c6572206973206e6f7420746865206f776e657281525060200191505060405180910390fd5b600073ffffffffffffffffffffffffffffffffffffffff168173ffffffffffffffffffffffffffffffffffffffff161415611af5576040517f08c379a0000000000000000000000000000000000000000000000000000000008152600401808060200182810382526026815260200180612f956026913960400191505060405180910390fd5b8073ffffffffffffffffffffffffffffffffffffffff16600a60009054906101000a900473ffffffffffffffffffffffffffffffffffffffff1673ffffffffffffffffffffffffffffffffffffffff167f8be0079c531659141344cd1fd0a4f28419497f9722a3daafe3b4186f6b6457e060405160405180910390a380600a60006101000a81548173ffffffffffffffffffffffffffffffffffffffff021916908373ffffffffffffffffffffffffffffffffffffffff16021790555050565b6000611bcb8260026124b490919063ffffffff16565b9050919050565b600033905090565b816004600083815260200190815260200160002060006101000a81548173ffffffffffffffffffffffffffffffffffffffff021916908373ffffffffffffffffffffffffffffffffffffffff160217905550808273ffffffffffffffffffffffffffffffffffffffff16611c4d83610f77565b73ffffffffffffffffffffffffffffffffffffffff167f8c5be1e5ebec7d5bd14f71427d1e84f3dd0314c0f7b2291e5b200ac8c7c3b92560405160405180910390a45050565b6000611ca1826000016124ce565b9050919050565b6000611cb382611bb5565b611d08576040517f08c379a000000000000000000000000000000000000000000000000000000000815260040180806020018281038252602c815260200180613005602c913960400191505060405180910390fd5b6000611d1383610f77565b90508073ffffffffffffffffffffffffffffffffffffffff168473ffffffffffffffffffffffffffffffffffffffff161480611d8257508373ffffffffffffffffffffffffffffffffffffffff16611d6a84610c73565b73ffffffffffffffffffffffffffffffffffffffff16145b80611d935750611d92818561192c565b5b91505092915050565b8273ffffffffffffffffffffffffffffffffffffffff16611dbc82610f77565b73ffffffffffffffffffffffffffffffffffffffff1614611e28576040517f08c379a00000000000000000000000000000000000000000000000000000000081526004018080602001828103825260298152602001806131366029913960400191505060405180910390fd5b600073ffffffffffffffffffffffffffffffffffffffff168273ffffffffffffffffffffffffffffffffffffffff161415611eae576040517f08c379a0000000000000000000000000000000000000000000000000000000008152600401808060200182810382526024815260200180612fbb6024913960400191505060405180910390fd5b611eb98383836124df565b611ec4600082611bda565b611f1581600160008673ffffffffffffffffffffffffffffffffffffffff1673ffffffffffffffffffffffffffffffffffffffff1681526020019081526020016000206124e490919063ffffffff16565b50611f6781600160008573ffffffffffffffffffffffffffffffffffffffff1673ffffffffffffffffffffffffffffffffffffffff1681526020019081526020016000206124fe90919063ffffffff16565b50611f7e818360026125189092919063ffffffff16565b50808273ffffffffffffffffffffffffffffffffffffffff168473ffffffffffffffffffffffffffffffffffffffff167fddf252ad1be2c89b69c2b068fc378daa952ba7f163c4a11628f55a4df523b3ef60405160405180910390a4505050565b6000611fee836000018361254d565b60001c905092915050565b60008060008061200c86600001866125d0565b915091508160001c8160001c9350935050509250929050565b6000612038846000018460001b84612669565b60001c90509392505050565b60006120528260000161275f565b9050919050565b6001816000016000828254019250508190555050565b600081600001549050919050565b600073ffffffffffffffffffffffffffffffffffffffff168273ffffffffffffffffffffffffffffffffffffffff161415612120576040517f08c379a00000000000000000000000000000000000000000000000000000000081526004018080602001828103825260208152602001807f4552433732313a206d696e7420746f20746865207a65726f206164647265737381525060200191505060405180910390fd5b61212981611bb5565b1561219c576040517f08c379a000000000000000000000000000000000000000000000000000000000815260040180806020018281038252601c8152602001807f4552433732313a20746f6b656e20616c7265616479206d696e7465640000000081525060200191505060405180910390fd5b6121a8600083836124df565b6121f981600160008573ffffffffffffffffffffffffffffffffffffffff1673ffffffffffffffffffffffffffffffffffffffff1681526020019081526020016000206124fe90919063ffffffff16565b50612210818360026125189092919063ffffffff16565b50808273ffffffffffffffffffffffffffffffffffffffff16600073ffffffffffffffffffffffffffffffffffffffff167fddf252ad1be2c89b69c2b068fc378daa952ba7f163c4a11628f55a4df523b3ef60405160405180910390a45050565b61227a82611bb5565b6122cf576040517f08c379a000000000000000000000000000000000000000000000000000000000815260040180806020018281038252602c81526020018061310a602c913960400191505060405180910390fd5b806008600084815260200190815260200160002090805190602001906122f6929190612ea3565b505050565b612306848484611d9c565b61231284848484612770565b612367576040517f08c379a0000000000000000000000000000000000000000000000000000000008152600401808060200182810382526032815260200180612f636032913960400191505060405180910390fd5b50505050565b606060008214156123b5576040518060400160405280600181526020017f300000000000000000000000000000000000000000000000000000000000000081525090506124af565b600082905060005b600082146123df578080600101915050600a82816123d757fe5b0491506123bd565b60608167ffffffffffffffff811180156123f857600080fd5b506040519080825280601f01601f19166020018201604052801561242b5781602001600182028036833780820191505090505b50905060006001830390508593505b600084146124a757600a848161244c57fe5b0660300160f81b8282806001900393508151811061246657fe5b60200101907effffffffffffffffffffffffffffffffffffffffffffffffffffffffffffff1916908160001a905350600a848161249f57fe5b04935061243a565b819450505050505b919050565b60006124c6836000018360001b612989565b905092915050565b600081600001805490509050919050565b505050565b60006124f6836000018360001b6129ac565b905092915050565b6000612510836000018360001b612a94565b905092915050565b6000612544846000018460001b8473ffffffffffffffffffffffffffffffffffffffff1660001b612b04565b90509392505050565b6000818360000180549050116125ae576040517f08c379a0000000000000000000000000000000000000000000000000000000008152600401808060200182810382526022815260200180612f416022913960400191505060405180910390fd5b8260000182815481106125bd57fe5b9060005260206000200154905092915050565b60008082846000018054905011612632576040517f08c379a00000000000000000000000000000000000000000000000000000000081526004018080602001828103825260228152602001806130bc6022913960400191505060405180910390fd5b600084600001848154811061264357fe5b906000526020600020906002020190508060000154816001015492509250509250929050565b60008084600101600085815260200190815260200160002054905060008114158390612730576040517f08c379a00000000000000000000000000000000000000000000000000000000081526004018080602001828103825283818151815260200191508051906020019080838360005b838110156126f55780820151818401526020810190506126da565b50505050905090810190601f1680156127225780820380516001836020036101000a031916815260200191505b509250505060405180910390fd5b5084600001600182038154811061274357fe5b9060005260206000209060020201600101549150509392505050565b600081600001805490509050919050565b60006127918473ffffffffffffffffffffffffffffffffffffffff16612be0565b61279e5760019050612981565b606061290863150b7a0260e01b6127b3611bd2565b888787604051602401808573ffffffffffffffffffffffffffffffffffffffff1681526020018473ffffffffffffffffffffffffffffffffffffffff16815260200183815260200180602001828103825283818151815260200191508051906020019080838360005b8381101561283757808201518184015260208101905061281c565b50505050905090810190601f1680156128645780820380516001836020036101000a031916815260200191505b5095505050505050604051602081830303815290604052907bffffffffffffffffffffffffffffffffffffffffffffffffffffffff19166020820180517bffffffffffffffffffffffffffffffffffffffffffffffffffffffff8381831617835250505050604051806060016040528060328152602001612f63603291398773ffffffffffffffffffffffffffffffffffffffff16612bf39092919063ffffffff16565b9050600081806020019051602081101561292157600080fd5b8101908080519060200190929190505050905063150b7a0260e01b7bffffffffffffffffffffffffffffffffffffffffffffffffffffffff1916817bffffffffffffffffffffffffffffffffffffffffffffffffffffffff191614925050505b949350505050565b600080836001016000848152602001908152602001600020541415905092915050565b60008083600101600084815260200190815260200160002054905060008114612a8857600060018203905060006001866000018054905003905060008660000182815481106129f757fe5b9060005260206000200154905080876000018481548110612a1457fe5b9060005260206000200181905550600183018760010160008381526020019081526020016000208190555086600001805480612a4c57fe5b60019003818190600052602060002001600090559055866001016000878152602001908152602001600020600090556001945050505050612a8e565b60009150505b92915050565b6000612aa08383612c0b565b612af9578260000182908060018154018082558091505060019003906000526020600020016000909190919091505582600001805490508360010160008481526020019081526020016000208190555060019050612afe565b600090505b92915050565b6000808460010160008581526020019081526020016000205490506000811415612bab57846000016040518060400160405280868152602001858152509080600181540180825580915050600190039060005260206000209060020201600090919091909150600082015181600001556020820151816001015550508460000180549050856001016000868152602001908152602001600020819055506001915050612bd9565b82856000016001830381548110612bbe57fe5b90600052602060002090600202016001018190555060009150505b9392505050565b600080823b905060008111915050919050565b6060612c028484600085612c2e565b90509392505050565b600080836001016000848152602001908152602001600020541415905092915050565b606082471015612c89576040517f08c379a0000000000000000000000000000000000000000000000000000000008152600401808060200182810382526026815260200180612fdf6026913960400191505060405180910390fd5b612c9285612be0565b612d04576040517f08c379a000000000000000000000000000000000000000000000000000000000815260040180806020018281038252601d8152602001807f416464726573733a2063616c6c20746f206e6f6e2d636f6e747261637400000081525060200191505060405180910390fd5b600060608673ffffffffffffffffffffffffffffffffffffffff1685876040518082805190602001908083835b60208310612d545780518252602082019150602081019050602083039250612d31565b6001836020036101000a03801982511681845116808217855250505050505090500191505060006040518083038185875af1925050503d8060008114612db6576040519150601f19603f3d011682016040523d82523d6000602084013e612dbb565b606091505b5091509150612dcb828286612dd7565b92505050949350505050565b60608315612de757829050612e9c565b600083511115612dfa5782518084602001fd5b816040517f08c379a00000000000000000000000000000000000000000000000000000000081526004018080602001828103825283818151815260200191508051906020019080838360005b83811015612e61578082015181840152602081019050612e46565b50505050905090810190601f168015612e8e5780820380516001836020036101000a031916815260200191505b509250505060405180910390fd5b9392505050565b828054600181600116156101000203166002900490600052602060002090601f016020900481019282601f10612ee457805160ff1916838001178555612f12565b82800160010185558215612f12579182015b82811115612f11578251825591602001919060010190612ef6565b5b509050612f1f9190612f23565b5090565b5b80821115612f3c576000816000905550600101612f24565b509056fe456e756d657261626c655365743a20696e646578206f7574206f6620626f756e64734552433732313a207472616e7366657220746f206e6f6e20455243373231526563656976657220696d706c656d656e7465724f776e61626c653a206e6577206f776e657220697320746865207a65726f20616464726573734552433732313a207472616e7366657220746f20746865207a65726f2061646472657373416464726573733a20696e73756666696369656e742062616c616e636520666f722063616c6c4552433732313a206f70657261746f7220717565727920666f72206e6f6e6578697374656e7420746f6b656e4552433732313a20617070726f76652063616c6c6572206973206e6f74206f776e6572206e6f7220617070726f76656420666f7220616c6c4552433732313a2062616c616e636520717565727920666f7220746865207a65726f20616464726573734552433732313a206f776e657220717565727920666f72206e6f6e6578697374656e7420746f6b656e456e756d657261626c654d61703a20696e646578206f7574206f6620626f756e64734552433732313a20617070726f76656420717565727920666f72206e6f6e6578697374656e7420746f6b656e4552433732314d657461646174613a2055524920736574206f66206e6f6e6578697374656e7420746f6b656e4552433732313a207472616e73666572206f6620746f6b656e2074686174206973206e6f74206f776e4552433732314d657461646174613a2055524920717565727920666f72206e6f6e6578697374656e7420746f6b656e4552433732313a20617070726f76616c20746f2063757272656e74206f776e65724552433732313a207472616e736665722063616c6c6572206973206e6f74206f776e6572206e6f7220617070726f7665644e6f7420656e6f756768204554482073656e743b20636865636b20707269636521a26469706673582212206c6acf6a307c3569af7ad083b5901b32b72629d655f7858800a4c88b1990c71064736f6c63430007030033",
  "linkReferences": {},
  "deployedLinkReferences": {}
}